{
  "_format": "hh-sol-artifact-1",
  "contractName": "MyContract",
  "sourceName": "contracts/MyContract.sol",
  "abi": [
    {
      "inputs": [
        {
          "internalType": "address",
          "name": "initialOwner",
          "type": "address"
        }
      ],
      "stateMutability": "nonpayable",
      "type": "constructor"
    },
    {
      "inputs": [
        {
          "internalType": "address",
          "name": "sender",
          "type": "address"
        },
        {
          "internalType": "uint256",
          "name": "tokenId",
          "type": "uint256"
        },
        {
          "internalType": "address",
          "name": "owner",
          "type": "address"
        }
      ],
      "name": "ERC721IncorrectOwner",
      "type": "error"
    },
    {
      "inputs": [
        {
          "internalType": "address",
          "name": "operator",
          "type": "address"
        },
        {
          "internalType": "uint256",
          "name": "tokenId",
          "type": "uint256"
        }
      ],
      "name": "ERC721InsufficientApproval",
      "type": "error"
    },
    {
      "inputs": [
        {
          "internalType": "address",
          "name": "approver",
          "type": "address"
        }
      ],
      "name": "ERC721InvalidApprover",
      "type": "error"
    },
    {
      "inputs": [
        {
          "internalType": "address",
          "name": "operator",
          "type": "address"
        }
      ],
      "name": "ERC721InvalidOperator",
      "type": "error"
    },
    {
      "inputs": [
        {
          "internalType": "address",
          "name": "owner",
          "type": "address"
        }
      ],
      "name": "ERC721InvalidOwner",
      "type": "error"
    },
    {
      "inputs": [
        {
          "internalType": "address",
          "name": "receiver",
          "type": "address"
        }
      ],
      "name": "ERC721InvalidReceiver",
      "type": "error"
    },
    {
      "inputs": [
        {
          "internalType": "address",
          "name": "sender",
          "type": "address"
        }
      ],
      "name": "ERC721InvalidSender",
      "type": "error"
    },
    {
      "inputs": [
        {
          "internalType": "uint256",
          "name": "tokenId",
          "type": "uint256"
        }
      ],
      "name": "ERC721NonexistentToken",
      "type": "error"
    },
    {
      "inputs": [
        {
          "internalType": "address",
          "name": "owner",
          "type": "address"
        }
      ],
      "name": "OwnableInvalidOwner",
      "type": "error"
    },
    {
      "inputs": [
        {
          "internalType": "address",
          "name": "account",
          "type": "address"
        }
      ],
      "name": "OwnableUnauthorizedAccount",
      "type": "error"
    },
    {
      "anonymous": false,
      "inputs": [
        {
          "indexed": true,
          "internalType": "address",
          "name": "owner",
          "type": "address"
        },
        {
          "indexed": true,
          "internalType": "address",
          "name": "approved",
          "type": "address"
        },
        {
          "indexed": true,
          "internalType": "uint256",
          "name": "tokenId",
          "type": "uint256"
        }
      ],
      "name": "Approval",
      "type": "event"
    },
    {
      "anonymous": false,
      "inputs": [
        {
          "indexed": true,
          "internalType": "address",
          "name": "owner",
          "type": "address"
        },
        {
          "indexed": true,
          "internalType": "address",
          "name": "operator",
          "type": "address"
        },
        {
          "indexed": false,
          "internalType": "bool",
          "name": "approved",
          "type": "bool"
        }
      ],
      "name": "ApprovalForAll",
      "type": "event"
    },
    {
      "anonymous": false,
      "inputs": [
        {
          "indexed": false,
          "internalType": "uint256",
          "name": "_fromTokenId",
          "type": "uint256"
        },
        {
          "indexed": false,
          "internalType": "uint256",
          "name": "_toTokenId",
          "type": "uint256"
        }
      ],
      "name": "BatchMetadataUpdate",
      "type": "event"
    },
    {
      "anonymous": false,
      "inputs": [
        {
          "indexed": false,
          "internalType": "uint256",
          "name": "_tokenId",
          "type": "uint256"
        }
      ],
      "name": "MetadataUpdate",
      "type": "event"
    },
    {
      "anonymous": false,
      "inputs": [
        {
          "indexed": true,
          "internalType": "address",
          "name": "previousOwner",
          "type": "address"
        },
        {
          "indexed": true,
          "internalType": "address",
          "name": "newOwner",
          "type": "address"
        }
      ],
      "name": "OwnershipTransferred",
      "type": "event"
    },
    {
      "anonymous": false,
      "inputs": [
        {
          "indexed": true,
          "internalType": "address",
          "name": "from",
          "type": "address"
        },
        {
          "indexed": true,
          "internalType": "address",
          "name": "to",
          "type": "address"
        },
        {
          "indexed": true,
          "internalType": "uint256",
          "name": "tokenId",
          "type": "uint256"
        }
      ],
      "name": "Transfer",
      "type": "event"
    },
    {
      "inputs": [
        {
          "internalType": "address",
          "name": "to",
          "type": "address"
        },
        {
          "internalType": "uint256",
          "name": "tokenId",
          "type": "uint256"
        }
      ],
      "name": "approve",
      "outputs": [],
      "stateMutability": "nonpayable",
      "type": "function"
    },
    {
      "inputs": [
        {
          "internalType": "address",
          "name": "owner",
          "type": "address"
        }
      ],
      "name": "balanceOf",
      "outputs": [
        {
          "internalType": "uint256",
          "name": "",
          "type": "uint256"
        }
      ],
      "stateMutability": "view",
      "type": "function"
    },
    {
      "inputs": [
        {
          "internalType": "uint256",
          "name": "tokenId",
          "type": "uint256"
        }
      ],
      "name": "getApproved",
      "outputs": [
        {
          "internalType": "address",
          "name": "",
          "type": "address"
        }
      ],
      "stateMutability": "view",
      "type": "function"
    },
    {
      "inputs": [
        {
          "internalType": "address",
          "name": "owner",
          "type": "address"
        },
        {
          "internalType": "address",
          "name": "operator",
          "type": "address"
        }
      ],
      "name": "isApprovedForAll",
      "outputs": [
        {
          "internalType": "bool",
          "name": "",
          "type": "bool"
        }
      ],
      "stateMutability": "view",
      "type": "function"
    },
    {
      "inputs": [
        {
          "internalType": "string",
          "name": "uri",
          "type": "string"
        }
      ],
      "name": "isContentOwned",
      "outputs": [
        {
          "internalType": "bool",
          "name": "",
          "type": "bool"
        }
      ],
      "stateMutability": "view",
      "type": "function"
    },
    {
      "inputs": [],
      "name": "name",
      "outputs": [
        {
          "internalType": "string",
          "name": "",
          "type": "string"
        }
      ],
      "stateMutability": "view",
      "type": "function"
    },
    {
      "inputs": [],
      "name": "owner",
      "outputs": [
        {
          "internalType": "address",
          "name": "",
          "type": "address"
        }
      ],
      "stateMutability": "view",
      "type": "function"
    },
    {
      "inputs": [
        {
          "internalType": "uint256",
          "name": "tokenId",
          "type": "uint256"
        }
      ],
      "name": "ownerOf",
      "outputs": [
        {
          "internalType": "address",
          "name": "",
          "type": "address"
        }
      ],
      "stateMutability": "view",
      "type": "function"
    },
    {
      "inputs": [
        {
          "internalType": "address",
          "name": "recipient",
          "type": "address"
        },
        {
          "internalType": "string",
          "name": "metadataURI",
          "type": "string"
        }
      ],
      "name": "payToMint",
      "outputs": [
        {
          "internalType": "uint256",
          "name": "",
          "type": "uint256"
        }
      ],
      "stateMutability": "payable",
      "type": "function"
    },
    {
      "inputs": [],
      "name": "renounceOwnership",
      "outputs": [],
      "stateMutability": "nonpayable",
      "type": "function"
    },
    {
      "inputs": [
        {
          "internalType": "address",
          "name": "to",
          "type": "address"
        },
        {
          "internalType": "string",
          "name": "uri",
          "type": "string"
        }
      ],
      "name": "safeMint",
      "outputs": [],
      "stateMutability": "nonpayable",
      "type": "function"
    },
    {
      "inputs": [
        {
          "internalType": "address",
          "name": "from",
          "type": "address"
        },
        {
          "internalType": "address",
          "name": "to",
          "type": "address"
        },
        {
          "internalType": "uint256",
          "name": "tokenId",
          "type": "uint256"
        }
      ],
      "name": "safeTransferFrom",
      "outputs": [],
      "stateMutability": "nonpayable",
      "type": "function"
    },
    {
      "inputs": [
        {
          "internalType": "address",
          "name": "from",
          "type": "address"
        },
        {
          "internalType": "address",
          "name": "to",
          "type": "address"
        },
        {
          "internalType": "uint256",
          "name": "tokenId",
          "type": "uint256"
        },
        {
          "internalType": "bytes",
          "name": "data",
          "type": "bytes"
        }
      ],
      "name": "safeTransferFrom",
      "outputs": [],
      "stateMutability": "nonpayable",
      "type": "function"
    },
    {
      "inputs": [
        {
          "internalType": "address",
          "name": "operator",
          "type": "address"
        },
        {
          "internalType": "bool",
          "name": "approved",
          "type": "bool"
        }
      ],
      "name": "setApprovalForAll",
      "outputs": [],
      "stateMutability": "nonpayable",
      "type": "function"
    },
    {
      "inputs": [
        {
          "internalType": "bytes4",
          "name": "interfaceId",
          "type": "bytes4"
        }
      ],
      "name": "supportsInterface",
      "outputs": [
        {
          "internalType": "bool",
          "name": "",
          "type": "bool"
        }
      ],
      "stateMutability": "view",
      "type": "function"
    },
    {
      "inputs": [],
      "name": "symbol",
      "outputs": [
        {
          "internalType": "string",
          "name": "",
          "type": "string"
        }
      ],
      "stateMutability": "view",
      "type": "function"
    },
    {
      "inputs": [
        {
          "internalType": "uint256",
          "name": "tokenId",
          "type": "uint256"
        }
      ],
      "name": "tokenURI",
      "outputs": [
        {
          "internalType": "string",
          "name": "",
          "type": "string"
        }
      ],
      "stateMutability": "view",
      "type": "function"
    },
    {
      "inputs": [
        {
          "internalType": "address",
          "name": "from",
          "type": "address"
        },
        {
          "internalType": "address",
          "name": "to",
          "type": "address"
        },
        {
          "internalType": "uint256",
          "name": "tokenId",
          "type": "uint256"
        }
      ],
      "name": "transferFrom",
      "outputs": [],
      "stateMutability": "nonpayable",
      "type": "function"
    },
    {
      "inputs": [
        {
          "internalType": "address",
          "name": "newOwner",
          "type": "address"
        }
      ],
      "name": "transferOwnership",
      "outputs": [],
      "stateMutability": "nonpayable",
      "type": "function"
    }
  ],
  "bytecode": "0x60806040523480156200001157600080fd5b50604051620030bd380380620030bd833981810160405281019062000037919062000288565b806040518060400160405280600781526020017f4d79546f6b656e000000000000000000000000000000000000000000000000008152506040518060400160405280600381526020017f4d544b00000000000000000000000000000000000000000000000000000000008152508160009081620000b5919062000534565b508060019081620000c7919062000534565b505050600073ffffffffffffffffffffffffffffffffffffffff168173ffffffffffffffffffffffffffffffffffffffff16036200013f5760006040517f1e4fbdf70000000000000000000000000000000000000000000000000000000081526004016200013691906200062c565b60405180910390fd5b62000150816200015860201b60201c565b505062000649565b6000600760009054906101000a900473ffffffffffffffffffffffffffffffffffffffff16905081600760006101000a81548173ffffffffffffffffffffffffffffffffffffffff021916908373ffffffffffffffffffffffffffffffffffffffff1602179055508173ffffffffffffffffffffffffffffffffffffffff168173ffffffffffffffffffffffffffffffffffffffff167f8be0079c531659141344cd1fd0a4f28419497f9722a3daafe3b4186f6b6457e060405160405180910390a35050565b600080fd5b600073ffffffffffffffffffffffffffffffffffffffff82169050919050565b6000620002508262000223565b9050919050565b620002628162000243565b81146200026e57600080fd5b50565b600081519050620002828162000257565b92915050565b600060208284031215620002a157620002a06200021e565b5b6000620002b18482850162000271565b91505092915050565b600081519050919050565b7f4e487b7100000000000000000000000000000000000000000000000000000000600052604160045260246000fd5b7f4e487b7100000000000000000000000000000000000000000000000000000000600052602260045260246000fd5b600060028204905060018216806200033c57607f821691505b602082108103620003525762000351620002f4565b5b50919050565b60008190508160005260206000209050919050565b60006020601f8301049050919050565b600082821b905092915050565b600060088302620003bc7fffffffffffffffffffffffffffffffffffffffffffffffffffffffffffffffff826200037d565b620003c886836200037d565b95508019841693508086168417925050509392505050565b6000819050919050565b6000819050919050565b6000620004156200040f6200040984620003e0565b620003ea565b620003e0565b9050919050565b6000819050919050565b6200043183620003f4565b6200044962000440826200041c565b8484546200038a565b825550505050565b600090565b6200046062000451565b6200046d81848462000426565b505050565b5b8181101562000495576200048960008262000456565b60018101905062000473565b5050565b601f821115620004e457620004ae8162000358565b620004b9846200036d565b81016020851015620004c9578190505b620004e1620004d8856200036d565b83018262000472565b50505b505050565b600082821c905092915050565b60006200050960001984600802620004e9565b1980831691505092915050565b6000620005248383620004f6565b9150826002028217905092915050565b6200053f82620002ba565b67ffffffffffffffff8111156200055b576200055a620002c5565b5b62000567825462000323565b6200057482828562000499565b600060209050601f831160018114620005ac576000841562000597578287015190505b620005a3858262000516565b86555062000613565b601f198416620005bc8662000358565b60005b82811015620005e657848901518255600182019150602085019450602081019050620005bf565b8683101562000606578489015162000602601f891682620004f6565b8355505b6001600288020188555050505b505050505050565b620006268162000243565b82525050565b60006020820190506200064360008301846200061b565b92915050565b612a6480620006596000396000f3fe6080604052600436106101145760003560e01c8063715018a6116100a0578063b88d4fde11610064578063b88d4fde146103b6578063c87b56dd146103df578063d204c45e1461041c578063e985e9c514610445578063f2fde38b1461048257610114565b8063715018a6146102e35780638da5cb5b146102fa57806395d89b41146103255780639f1cabc614610350578063a22cb4651461038d57610114565b806323b872dd116100e757806323b872dd146101e757806342842e0e14610210578063615fd9e2146102395780636352211e1461026957806370a08231146102a657610114565b806301ffc9a71461011957806306fdde0314610156578063081812fc14610181578063095ea7b3146101be575b600080fd5b34801561012557600080fd5b50610140600480360381019061013b9190611d84565b6104ab565b60405161014d9190611dcc565b60405180910390f35b34801561016257600080fd5b5061016b6104bd565b6040516101789190611e77565b60405180910390f35b34801561018d57600080fd5b506101a860048036038101906101a39190611ecf565b61054f565b6040516101b59190611f3d565b60405180910390f35b3480156101ca57600080fd5b506101e560048036038101906101e09190611f84565b61056b565b005b3480156101f357600080fd5b5061020e60048036038101906102099190611fc4565b610581565b005b34801561021c57600080fd5b5061023760048036038101906102329190611fc4565b610683565b005b610253600480360381019061024e919061214c565b6106a3565b60405161026091906121b7565b60405180910390f35b34801561027557600080fd5b50610290600480360381019061028b9190611ecf565b6107ad565b60405161029d9190611f3d565b60405180910390f35b3480156102b257600080fd5b506102cd60048036038101906102c891906121d2565b6107bf565b6040516102da91906121b7565b60405180910390f35b3480156102ef57600080fd5b506102f8610879565b005b34801561030657600080fd5b5061030f61088d565b60405161031c9190611f3d565b60405180910390f35b34801561033157600080fd5b5061033a6108b7565b6040516103479190611e77565b60405180910390f35b34801561035c57600080fd5b50610377600480360381019061037291906121ff565b610949565b6040516103849190611dcc565b60405180910390f35b34801561039957600080fd5b506103b460048036038101906103af9190612274565b610974565b005b3480156103c257600080fd5b506103dd60048036038101906103d89190612355565b61098a565b005b3480156103eb57600080fd5b5061040660048036038101906104019190611ecf565b6109a7565b6040516104139190611e77565b60405180910390f35b34801561042857600080fd5b50610443600480360381019061043e919061214c565b6109b9565b005b34801561045157600080fd5b5061046c600480360381019061046791906123d8565b6109f5565b6040516104799190611dcc565b60405180910390f35b34801561048e57600080fd5b506104a960048036038101906104a491906121d2565b610a89565b005b60006104b682610b0f565b9050919050565b6060600080546104cc90612447565b80601f01602080910402602001604051908101604052809291908181526020018280546104f890612447565b80156105455780601f1061051a57610100808354040283529160200191610545565b820191906000526020600020905b81548152906001019060200180831161052857829003601f168201915b5050505050905090565b600061055a82610b70565b5061056482610bf8565b9050919050565b61057d8282610578610c35565b610c3d565b5050565b600073ffffffffffffffffffffffffffffffffffffffff168273ffffffffffffffffffffffffffffffffffffffff16036105f35760006040517f64a0ae920000000000000000000000000000000000000000000000000000000081526004016105ea9190611f3d565b60405180910390fd5b60006106078383610602610c35565b610c4f565b90508373ffffffffffffffffffffffffffffffffffffffff168173ffffffffffffffffffffffffffffffffffffffff161461067d578382826040517f64283d7b00000000000000000000000000000000000000000000000000000000815260040161067493929190612478565b60405180910390fd5b50505050565b61069e8383836040518060200160405280600081525061098a565b505050565b600060016009836040516106b791906124eb565b90815260200160405180910390205403610706576040517f08c379a00000000000000000000000000000000000000000000000000000000081526004016106fd9061254e565b60405180910390fd5b66b1a2bc2ec50000341015610750576040517f08c379a0000000000000000000000000000000000000000000000000000000008152600401610747906125ba565b60405180910390fd5b60006008600081548092919061076590612609565b919050559050600160098460405161077d91906124eb565b9081526020016040518091039020819055506107998482610e69565b6107a38184610f62565b8091505092915050565b60006107b882610b70565b9050919050565b60008073ffffffffffffffffffffffffffffffffffffffff168273ffffffffffffffffffffffffffffffffffffffff16036108325760006040517f89c62b640000000000000000000000000000000000000000000000000000000081526004016108299190611f3d565b60405180910390fd5b600360008373ffffffffffffffffffffffffffffffffffffffff1673ffffffffffffffffffffffffffffffffffffffff168152602001908152602001600020549050919050565b610881610fbe565b61088b6000611045565b565b6000600760009054906101000a900473ffffffffffffffffffffffffffffffffffffffff16905090565b6060600180546108c690612447565b80601f01602080910402602001604051908101604052809291908181526020018280546108f290612447565b801561093f5780601f106109145761010080835404028352916020019161093f565b820191906000526020600020905b81548152906001019060200180831161092257829003601f168201915b5050505050905090565b6000600160098360405161095d91906124eb565b908152602001604051809103902054149050919050565b61098661097f610c35565b838361110b565b5050565b610995848484610581565b6109a18484848461127a565b50505050565b60606109b282611431565b9050919050565b6109c1610fbe565b6000600860008154809291906109d690612609565b9190505590506109e68382611544565b6109f08183610f62565b505050565b6000600560008473ffffffffffffffffffffffffffffffffffffffff1673ffffffffffffffffffffffffffffffffffffffff16815260200190815260200160002060008373ffffffffffffffffffffffffffffffffffffffff1673ffffffffffffffffffffffffffffffffffffffff16815260200190815260200160002060009054906101000a900460ff16905092915050565b610a91610fbe565b600073ffffffffffffffffffffffffffffffffffffffff168173ffffffffffffffffffffffffffffffffffffffff1603610b035760006040517f1e4fbdf7000000000000000000000000000000000000000000000000000000008152600401610afa9190611f3d565b60405180910390fd5b610b0c81611045565b50565b6000634906490660e01b7bffffffffffffffffffffffffffffffffffffffffffffffffffffffff1916827bffffffffffffffffffffffffffffffffffffffffffffffffffffffff19161480610b695750610b6882611562565b5b9050919050565b600080610b7c83611644565b9050600073ffffffffffffffffffffffffffffffffffffffff168173ffffffffffffffffffffffffffffffffffffffff1603610bef57826040517f7e273289000000000000000000000000000000000000000000000000000000008152600401610be691906121b7565b60405180910390fd5b80915050919050565b60006004600083815260200190815260200160002060009054906101000a900473ffffffffffffffffffffffffffffffffffffffff169050919050565b600033905090565b610c4a8383836001611681565b505050565b600080610c5b84611644565b9050600073ffffffffffffffffffffffffffffffffffffffff168373ffffffffffffffffffffffffffffffffffffffff1614610c9d57610c9c818486611846565b5b600073ffffffffffffffffffffffffffffffffffffffff168173ffffffffffffffffffffffffffffffffffffffff1614610d2e57610cdf600085600080611681565b6001600360008373ffffffffffffffffffffffffffffffffffffffff1673ffffffffffffffffffffffffffffffffffffffff168152602001908152602001600020600082825403925050819055505b600073ffffffffffffffffffffffffffffffffffffffff168573ffffffffffffffffffffffffffffffffffffffff1614610db1576001600360008773ffffffffffffffffffffffffffffffffffffffff1673ffffffffffffffffffffffffffffffffffffffff168152602001908152602001600020600082825401925050819055505b846002600086815260200190815260200160002060006101000a81548173ffffffffffffffffffffffffffffffffffffffff021916908373ffffffffffffffffffffffffffffffffffffffff160217905550838573ffffffffffffffffffffffffffffffffffffffff168273ffffffffffffffffffffffffffffffffffffffff167fddf252ad1be2c89b69c2b068fc378daa952ba7f163c4a11628f55a4df523b3ef60405160405180910390a4809150509392505050565b600073ffffffffffffffffffffffffffffffffffffffff168273ffffffffffffffffffffffffffffffffffffffff1603610edb5760006040517f64a0ae92000000000000000000000000000000000000000000000000000000008152600401610ed29190611f3d565b60405180910390fd5b6000610ee983836000610c4f565b9050600073ffffffffffffffffffffffffffffffffffffffff168173ffffffffffffffffffffffffffffffffffffffff1614610f5d5760006040517f73c6ac6e000000000000000000000000000000000000000000000000000000008152600401610f549190611f3d565b60405180910390fd5b505050565b80600660008481526020019081526020016000209081610f8291906127fd565b507ff8e1a15aba9398e019f0b49df1a4fde98ee17ae345cb5f6b5e2c27f5033e8ce782604051610fb291906121b7565b60405180910390a15050565b610fc6610c35565b73ffffffffffffffffffffffffffffffffffffffff16610fe461088d565b73ffffffffffffffffffffffffffffffffffffffff161461104357611007610c35565b6040517f118cdaa700000000000000000000000000000000000000000000000000000000815260040161103a9190611f3d565b60405180910390fd5b565b6000600760009054906101000a900473ffffffffffffffffffffffffffffffffffffffff16905081600760006101000a81548173ffffffffffffffffffffffffffffffffffffffff021916908373ffffffffffffffffffffffffffffffffffffffff1602179055508173ffffffffffffffffffffffffffffffffffffffff168173ffffffffffffffffffffffffffffffffffffffff167f8be0079c531659141344cd1fd0a4f28419497f9722a3daafe3b4186f6b6457e060405160405180910390a35050565b600073ffffffffffffffffffffffffffffffffffffffff168273ffffffffffffffffffffffffffffffffffffffff160361117c57816040517f5b08ba180000000000000000000000000000000000000000000000000000000081526004016111739190611f3d565b60405180910390fd5b80600560008573ffffffffffffffffffffffffffffffffffffffff1673ffffffffffffffffffffffffffffffffffffffff16815260200190815260200160002060008473ffffffffffffffffffffffffffffffffffffffff1673ffffffffffffffffffffffffffffffffffffffff16815260200190815260200160002060006101000a81548160ff0219169083151502179055508173ffffffffffffffffffffffffffffffffffffffff168373ffffffffffffffffffffffffffffffffffffffff167f17307eab39ab6107e8899845ad3d59bd9653f200f220920489ca2b5937696c318360405161126d9190611dcc565b60405180910390a3505050565b60008373ffffffffffffffffffffffffffffffffffffffff163b111561142b578273ffffffffffffffffffffffffffffffffffffffff1663150b7a026112be610c35565b8685856040518563ffffffff1660e01b81526004016112e09493929190612924565b6020604051808303816000875af192505050801561131c57506040513d601f19601f820116820180604052508101906113199190612985565b60015b6113a0573d806000811461134c576040519150601f19603f3d011682016040523d82523d6000602084013e611351565b606091505b50600081510361139857836040517f64a0ae9200000000000000000000000000000000000000000000000000000000815260040161138f9190611f3d565b60405180910390fd5b805181602001fd5b63150b7a0260e01b7bffffffffffffffffffffffffffffffffffffffffffffffffffffffff1916817bffffffffffffffffffffffffffffffffffffffffffffffffffffffff19161461142957836040517f64a0ae920000000000000000000000000000000000000000000000000000000081526004016114209190611f3d565b60405180910390fd5b505b50505050565b606061143c82610b70565b50600060066000848152602001908152602001600020805461145d90612447565b80601f016020809104026020016040519081016040528092919081815260200182805461148990612447565b80156114d65780601f106114ab576101008083540402835291602001916114d6565b820191906000526020600020905b8154815290600101906020018083116114b957829003601f168201915b5050505050905060006114e761190a565b905060008151036114fc57819250505061153f565b6000825111156115315780826040516020016115199291906129b2565b6040516020818303038152906040529250505061153f565b61153a84611947565b925050505b919050565b61155e8282604051806020016040528060008152506119b0565b5050565b60007f80ac58cd000000000000000000000000000000000000000000000000000000007bffffffffffffffffffffffffffffffffffffffffffffffffffffffff1916827bffffffffffffffffffffffffffffffffffffffffffffffffffffffff1916148061162d57507f5b5e139f000000000000000000000000000000000000000000000000000000007bffffffffffffffffffffffffffffffffffffffffffffffffffffffff1916827bffffffffffffffffffffffffffffffffffffffffffffffffffffffff1916145b8061163d575061163c826119cc565b5b9050919050565b60006002600083815260200190815260200160002060009054906101000a900473ffffffffffffffffffffffffffffffffffffffff169050919050565b80806116ba5750600073ffffffffffffffffffffffffffffffffffffffff168273ffffffffffffffffffffffffffffffffffffffff1614155b156117ee5760006116ca84610b70565b9050600073ffffffffffffffffffffffffffffffffffffffff168373ffffffffffffffffffffffffffffffffffffffff161415801561173557508273ffffffffffffffffffffffffffffffffffffffff168173ffffffffffffffffffffffffffffffffffffffff1614155b8015611748575061174681846109f5565b155b1561178a57826040517fa9fbf51f0000000000000000000000000000000000000000000000000000000081526004016117819190611f3d565b60405180910390fd5b81156117ec57838573ffffffffffffffffffffffffffffffffffffffff168273ffffffffffffffffffffffffffffffffffffffff167f8c5be1e5ebec7d5bd14f71427d1e84f3dd0314c0f7b2291e5b200ac8c7c3b92560405160405180910390a45b505b836004600085815260200190815260200160002060006101000a81548173ffffffffffffffffffffffffffffffffffffffff021916908373ffffffffffffffffffffffffffffffffffffffff16021790555050505050565b611851838383611a36565b61190557600073ffffffffffffffffffffffffffffffffffffffff168373ffffffffffffffffffffffffffffffffffffffff16036118c657806040517f7e2732890000000000000000000000000000000000000000000000000000000081526004016118bd91906121b7565b60405180910390fd5b81816040517f177e802f0000000000000000000000000000000000000000000000000000000081526004016118fc9291906129d6565b60405180910390fd5b505050565b60606040518060400160405280600781526020017f697066733a2f2f00000000000000000000000000000000000000000000000000815250905090565b606061195282610b70565b50600061195d61190a565b9050600081511161197d57604051806020016040528060008152506119a8565b8061198784611af7565b6040516020016119989291906129b2565b6040516020818303038152906040525b915050919050565b6119ba8383610e69565b6119c7600084848461127a565b505050565b60007f01ffc9a7000000000000000000000000000000000000000000000000000000007bffffffffffffffffffffffffffffffffffffffffffffffffffffffff1916827bffffffffffffffffffffffffffffffffffffffffffffffffffffffff1916149050919050565b60008073ffffffffffffffffffffffffffffffffffffffff168373ffffffffffffffffffffffffffffffffffffffff1614158015611aee57508273ffffffffffffffffffffffffffffffffffffffff168473ffffffffffffffffffffffffffffffffffffffff161480611aaf5750611aae84846109f5565b5b80611aed57508273ffffffffffffffffffffffffffffffffffffffff16611ad583610bf8565b73ffffffffffffffffffffffffffffffffffffffff16145b5b90509392505050565b606060006001611b0684611bc5565b01905060008167ffffffffffffffff811115611b2557611b24612021565b5b6040519080825280601f01601f191660200182016040528015611b575781602001600182028036833780820191505090505b509050600082602001820190505b600115611bba578080600190039150507f3031323334353637383961626364656600000000000000000000000000000000600a86061a8153600a8581611bae57611bad6129ff565b5b04945060008503611b65575b819350505050919050565b600080600090507a184f03e93ff9f4daa797ed6e38ed64bf6a1f0100000000000000008310611c23577a184f03e93ff9f4daa797ed6e38ed64bf6a1f0100000000000000008381611c1957611c186129ff565b5b0492506040810190505b6d04ee2d6d415b85acef81000000008310611c60576d04ee2d6d415b85acef81000000008381611c5657611c556129ff565b5b0492506020810190505b662386f26fc100008310611c8f57662386f26fc100008381611c8557611c846129ff565b5b0492506010810190505b6305f5e1008310611cb8576305f5e1008381611cae57611cad6129ff565b5b0492506008810190505b6127108310611cdd576127108381611cd357611cd26129ff565b5b0492506004810190505b60648310611d005760648381611cf657611cf56129ff565b5b0492506002810190505b600a8310611d0f576001810190505b80915050919050565b6000604051905090565b600080fd5b600080fd5b60007fffffffff0000000000000000000000000000000000000000000000000000000082169050919050565b611d6181611d2c565b8114611d6c57600080fd5b50565b600081359050611d7e81611d58565b92915050565b600060208284031215611d9a57611d99611d22565b5b6000611da884828501611d6f565b91505092915050565b60008115159050919050565b611dc681611db1565b82525050565b6000602082019050611de16000830184611dbd565b92915050565b600081519050919050565b600082825260208201905092915050565b60005b83811015611e21578082015181840152602081019050611e06565b60008484015250505050565b6000601f19601f8301169050919050565b6000611e4982611de7565b611e538185611df2565b9350611e63818560208601611e03565b611e6c81611e2d565b840191505092915050565b60006020820190508181036000830152611e918184611e3e565b905092915050565b6000819050919050565b611eac81611e99565b8114611eb757600080fd5b50565b600081359050611ec981611ea3565b92915050565b600060208284031215611ee557611ee4611d22565b5b6000611ef384828501611eba565b91505092915050565b600073ffffffffffffffffffffffffffffffffffffffff82169050919050565b6000611f2782611efc565b9050919050565b611f3781611f1c565b82525050565b6000602082019050611f526000830184611f2e565b92915050565b611f6181611f1c565b8114611f6c57600080fd5b50565b600081359050611f7e81611f58565b92915050565b60008060408385031215611f9b57611f9a611d22565b5b6000611fa985828601611f6f565b9250506020611fba85828601611eba565b9150509250929050565b600080600060608486031215611fdd57611fdc611d22565b5b6000611feb86828701611f6f565b9350506020611ffc86828701611f6f565b925050604061200d86828701611eba565b9150509250925092565b600080fd5b600080fd5b7f4e487b7100000000000000000000000000000000000000000000000000000000600052604160045260246000fd5b61205982611e2d565b810181811067ffffffffffffffff8211171561207857612077612021565b5b80604052505050565b600061208b611d18565b90506120978282612050565b919050565b600067ffffffffffffffff8211156120b7576120b6612021565b5b6120c082611e2d565b9050602081019050919050565b82818337600083830152505050565b60006120ef6120ea8461209c565b612081565b90508281526020810184848401111561210b5761210a61201c565b5b6121168482856120cd565b509392505050565b600082601f83011261213357612132612017565b5b81356121438482602086016120dc565b91505092915050565b6000806040838503121561216357612162611d22565b5b600061217185828601611f6f565b925050602083013567ffffffffffffffff81111561219257612191611d27565b5b61219e8582860161211e565b9150509250929050565b6121b181611e99565b82525050565b60006020820190506121cc60008301846121a8565b92915050565b6000602082840312156121e8576121e7611d22565b5b60006121f684828501611f6f565b91505092915050565b60006020828403121561221557612214611d22565b5b600082013567ffffffffffffffff81111561223357612232611d27565b5b61223f8482850161211e565b91505092915050565b61225181611db1565b811461225c57600080fd5b50565b60008135905061226e81612248565b92915050565b6000806040838503121561228b5761228a611d22565b5b600061229985828601611f6f565b92505060206122aa8582860161225f565b9150509250929050565b600067ffffffffffffffff8211156122cf576122ce612021565b5b6122d882611e2d565b9050602081019050919050565b60006122f86122f3846122b4565b612081565b9050828152602081018484840111156123145761231361201c565b5b61231f8482856120cd565b509392505050565b600082601f83011261233c5761233b612017565b5b813561234c8482602086016122e5565b91505092915050565b6000806000806080858703121561236f5761236e611d22565b5b600061237d87828801611f6f565b945050602061238e87828801611f6f565b935050604061239f87828801611eba565b925050606085013567ffffffffffffffff8111156123c0576123bf611d27565b5b6123cc87828801612327565b91505092959194509250565b600080604083850312156123ef576123ee611d22565b5b60006123fd85828601611f6f565b925050602061240e85828601611f6f565b9150509250929050565b7f4e487b7100000000000000000000000000000000000000000000000000000000600052602260045260246000fd5b6000600282049050600182168061245f57607f821691505b60208210810361247257612471612418565b5b50919050565b600060608201905061248d6000830186611f2e565b61249a60208301856121a8565b6124a76040830184611f2e565b949350505050565b600081905092915050565b60006124c582611de7565b6124cf81856124af565b93506124df818560208601611e03565b80840191505092915050565b60006124f782846124ba565b915081905092915050565b7f4e465420616c7265616479206d696e7465642100000000000000000000000000600082015250565b6000612538601383611df2565b915061254382612502565b602082019050919050565b600060208201905081810360008301526125678161252b565b9050919050565b7f4e65656420746f20706179207570210000000000000000000000000000000000600082015250565b60006125a4600f83611df2565b91506125af8261256e565b602082019050919050565b600060208201905081810360008301526125d381612597565b9050919050565b7f4e487b7100000000000000000000000000000000000000000000000000000000600052601160045260246000fd5b600061261482611e99565b91507fffffffffffffffffffffffffffffffffffffffffffffffffffffffffffffffff8203612646576126456125da565b5b600182019050919050565b60008190508160005260206000209050919050565b60006020601f8301049050919050565b600082821b905092915050565b6000600883026126b37fffffffffffffffffffffffffffffffffffffffffffffffffffffffffffffffff82612676565b6126bd8683612676565b95508019841693508086168417925050509392505050565b6000819050919050565b60006126fa6126f56126f084611e99565b6126d5565b611e99565b9050919050565b6000819050919050565b612714836126df565b61272861272082612701565b848454612683565b825550505050565b600090565b61273d612730565b61274881848461270b565b505050565b5b8181101561276c57612761600082612735565b60018101905061274e565b5050565b601f8211156127b15761278281612651565b61278b84612666565b8101602085101561279a578190505b6127ae6127a685612666565b83018261274d565b50505b505050565b600082821c905092915050565b60006127d4600019846008026127b6565b1980831691505092915050565b60006127ed83836127c3565b9150826002028217905092915050565b61280682611de7565b67ffffffffffffffff81111561281f5761281e612021565b5b6128298254612447565b612834828285612770565b600060209050601f8311600181146128675760008415612855578287015190505b61285f85826127e1565b8655506128c7565b601f19841661287586612651565b60005b8281101561289d57848901518255600182019150602085019450602081019050612878565b868310156128ba57848901516128b6601f8916826127c3565b8355505b6001600288020188555050505b505050505050565b600081519050919050565b600082825260208201905092915050565b60006128f6826128cf565b61290081856128da565b9350612910818560208601611e03565b61291981611e2d565b840191505092915050565b60006080820190506129396000830187611f2e565b6129466020830186611f2e565b61295360408301856121a8565b818103606083015261296581846128eb565b905095945050505050565b60008151905061297f81611d58565b92915050565b60006020828403121561299b5761299a611d22565b5b60006129a984828501612970565b91505092915050565b60006129be82856124ba565b91506129ca82846124ba565b91508190509392505050565b60006040820190506129eb6000830185611f2e565b6129f860208301846121a8565b9392505050565b7f4e487b7100000000000000000000000000000000000000000000000000000000600052601260045260246000fdfea2646970667358221220dc812ffb6d58fb2e53acf2931fcfeecab64db7bdc0999bbb0080807b54f5c68964736f6c63430008140033",
  "linkReferences": {},
  "deployedLinkReferences": {}
}